:020000020000FC
:0600000070C039C045C0CC
:100024004AC000030405080C101B20344B5F7EA259
:10003400CDFF000003030404050508080C0C101090
:100044001B1B202034344B4B5F5F7E7EA2A2CDCDA0
:10005400FFFF07070707040404040107030500065C
:100064000204FF0FFF0FFF0F1FFF1F1F1FFFFF0FD4
:10007400FFFF4B9907C057B89AB84A99FECF77B893
:100084007AB81895E6B150A090A818954A99FACF75
:10009400DFB6C6B059B05820C5289080C920C08AA0
:1000A4005C2C509450A2952C982090AAED3009F421
:1000B4003068DFBE1895C090C600E4FF06C0C7FCD8
:1000C40002C0EC2D1895E0E11895DFB65080C520EC
:1000D400C08AED3009F43068E0E1DFBE189505B759
:1000E400046005BF0FEF0DBF02E00EBF00B707604D
:1000F40000BF772400EC802E04E0A02E0FE1202E18
:100104000FEF502E982CFF2420E1E0E1F1E080A2D3
:10011400008B71922A95D9F7B2E0A0E1E6E5F0E010
:1001240020E1CBD0A0E2E6E2F0E020E1C6D0A0E3FB
:10013400E6E3F0E020E2C1D0AA27B1E0E6E6F0E091
:1001440020E1BBD0F1E0D2E06F2E72BC71BCF89A12
:1001540000B5071591F000270093C50006E0009351
:10016400C20002E00093C00000E90093C10003E074
:1001740001BDF89A20B52093C40003E004BD09E052
:1001840005BDD1BDF89A20B527BD219A229A01EA6E
:100194000093800009E000938100239A03E8009310
:1001A400B00001E00093B100F1BDF89A00B5071565
:1001B40031F00FE00093690003E00CBB0DBBE0E1FC
:1001C4003327002444241124282D0027CC2433244D
:1001D40044275527BA01CA01DA0111277894C5B317
:1001E400C0FFFDCFC5BB37FF06C0C0911D01088904
:1001F4002FE13F770CC007FD12C0119708F079F486
:100204002A952AF42FE101FD0F2702FD0829A09168
:100214001B01B0911C01C22F00FFC22518A93A94FA
:100224006AF4309016013A9466946E2CF794E7942D
:100234003863E0FE377C660C6E246694415050406F
:100244003AF44091100150911101415050403F2720
:10025400615070403AF46091120170911301615041
:1002640070403D27019732F480911401909115015B
:1002740001973A25B0901701B32ACB2DCC0FC29524
:10028400BC22C0911801012EC4FF08A0B0FE0024B6
:10029400C0911901412EC4FF48A0B1FE4424C0916D
:1002A4001A01112EC4FF18A0B2FE11240092880076
:1002B4004092B30010928A0092CF05910D932A9533
:0402C400E1F70895C1
:00000001FF
